{
    "contractName": "ZombieFeeding",
    "abi": [
        {
            "anonymous": false,
            "inputs": [
                {
                    "indexed": false,
                    "internalType": "uint256",
                    "name": "zombieId",
                    "type": "uint256"
                },
                {
                    "indexed": false,
                    "internalType": "string",
                    "name": "name",
                    "type": "string"
                },
                {
                    "indexed": false,
                    "internalType": "uint256",
                    "name": "dna",
                    "type": "uint256"
                }
            ],
            "name": "NewZombie",
            "type": "event"
        },
        {
            "inputs": [
                {
                    "internalType": "string",
                    "name": "_name",
                    "type": "string"
                }
            ],
            "name": "createRandomZombie",
            "outputs": [],
            "stateMutability": "nonpayable",
            "type": "function"
        },
        {
            "inputs": [
                {
                    "internalType": "uint256",
                    "name": "",
                    "type": "uint256"
                }
            ],
            "name": "zombieToOwner",
            "outputs": [
                {
                    "internalType": "address",
                    "name": "",
                    "type": "address"
                }
            ],
            "stateMutability": "view",
            "type": "function"
        },
        {
            "inputs": [
                {
                    "internalType": "uint256",
                    "name": "",
                    "type": "uint256"
                }
            ],
            "name": "zombies",
            "outputs": [
                {
                    "internalType": "string",
                    "name": "name",
                    "type": "string"
                },
                {
                    "internalType": "uint256",
                    "name": "dna",
                    "type": "uint256"
                }
            ],
            "stateMutability": "view",
            "type": "function"
        }
    ],
    "bytecode": "60806040526010600081905561001690600a610127565b60015534801561002557600080fd5b5061013a565b634e487b7160e01b600052601160045260246000fd5b600181815b8085111561007c5781600019048211156100625761006261002b565b8085161561006f57918102915b93841c9390800290610046565b509250929050565b60008261009357506001610121565b816100a057506000610121565b81600181146100b657600281146100c0576100dc565b6001915050610121565b60ff8411156100d1576100d161002b565b50506001821b610121565b5060208310610133831016604e8410600b84101617156100ff575081810a610121565b6101098383610041565b806000190482111561011d5761011d61002b565b0290505b92915050565b60006101338383610084565b9392505050565b61066f806101496000396000f3fe608060405234801561001057600080fd5b50600436106100415760003560e01c80632052465e14610046578063528b7b8f146100705780637bff0a01146100b1575b600080fd5b6100596100543660046102ef565b6100c6565b604051610067929190610358565b60405180910390f35b61009961007e3660046102ef565b6003602052600090815260409020546001600160a01b031681565b6040516001600160a01b039091168152602001610067565b6100c46100bf366004610390565b610182565b005b600281815481106100d657600080fd5b90600052602060002090600202016000915090508060000180546100f990610441565b80601f016020809104026020016040519081016040528092919081815260200182805461012590610441565b80156101725780601f1061014757610100808354040283529160200191610172565b820191906000526020600020905b81548152906001019060200180831161015557829003601f168201915b5050505050908060010154905082565b336000908152600460205260409020541561019c57600080fd5b60006101a7826101b7565b90506101b382826101fb565b5050565b600080826040516020016101cb919061047b565b6040516020818303038152906040528051906020012060001c9050600154816101f49190610497565b9392505050565b6040805180820190915282815260208101829052600280546001810182556000829052825191027f405787fa12a823e0f2b7631cc41b3ba8828b3321ca811111fa75cd3aa3bb5ace019081906102519082610508565b506020919091015160019182015560025460009161026e916105de565b600081815260036020908152604080832080546001600160a01b031916339081179091558352600490915281208054929350906102aa836105f7565b91905055507f88f026aacbbecc90c18411df4b1185fd8d9be2470f1962f192bf84a27d0704b78184846040516102e293929190610610565b60405180910390a1505050565b60006020828403121561030157600080fd5b5035919050565b60005b8381101561032357818101518382015260200161030b565b50506000910152565b60008151808452610344816020860160208601610308565b601f01601f19169290920160200192915050565b60408152600061036b604083018561032c565b90508260208301529392505050565b634e487b7160e01b600052604160045260246000fd5b6000602082840312156103a257600080fd5b813567ffffffffffffffff808211156103ba57600080fd5b818401915084601f8301126103ce57600080fd5b8135818111156103e0576103e061037a565b604051601f8201601f19908116603f011681019083821181831017156104085761040861037a565b8160405282815287602084870101111561042157600080fd5b826020860160208301376000928101602001929092525095945050505050565b600181811c9082168061045557607f821691505b60208210810361047557634e487b7160e01b600052602260045260246000fd5b50919050565b6000825161048d818460208701610308565b9190910192915050565b6000826104b457634e487b7160e01b600052601260045260246000fd5b500690565b601f82111561050357600081815260208120601f850160051c810160208610156104e05750805b601f850160051c820191505b818110156104ff578281556001016104ec565b5050505b505050565b815167ffffffffffffffff8111156105225761052261037a565b610536816105308454610441565b846104b9565b602080601f83116001811461056b57600084156105535750858301515b600019600386901b1c1916600185901b1785556104ff565b600085815260208120601f198616915b8281101561059a5788860151825594840194600190910190840161057b565b50858210156105b85787850151600019600388901b60f8161c191681555b5050505050600190811b01905550565b634e487b7160e01b600052601160045260246000fd5b818103818111156105f1576105f16105c8565b92915050565b600060018201610609576106096105c8565b5060010190565b838152606060208201526000610629606083018561032c565b905082604083015294935050505056fea2646970667358221220ad46e5fdf9812c3698f8b7a1a71c4c36bacf42bfe06aa43a56a30eae964518ef64736f6c63430008100033",
    "sourcePath": "c:/Users/TheUnicornDev237/Desktop/repo_desktop/building-a-zombie-factory-in-solidity/002-zombie-feeding/zombiefeeding.sol",
    "compiler": {
        "name": "solc",
        "version": "0.8.16+commit.07a7930e"
    },
    "functionHashes": {
        "createRandomZombie(string)": "7bff0a01",
        "zombieToOwner(uint256)": "528b7b8f",
        "zombies(uint256)": "2052465e"
    },
    "gasEstimates": {
        "creation": {
            "codeDepositCost": "329400",
            "executionCost": "44919",
            "totalCost": "374319"
        },
        "external": {
            "createRandomZombie(string)": "infinite",
            "zombieToOwner(uint256)": "2477",
            "zombies(uint256)": "infinite"
        }
    }
}